:020000040800F2
:1000000000200020211400083505000837050008ED
:1000100000000000000000000000000000000000E0
:10002000000000000000000000000000390500088A
:1000300000000000000000003B0500083D0500082E
:10004000711400087114000871140008711400087C
:10005000711400087114000871140008711400086C
:10006000711400087114000871140008711400085C
:10007000711400087114000871140008711400084C
:1000800071140008711400080000000071140008C9
:10009000711400087114000871140008711400082C
:1000A000711400087114000871140008711400081C
:1000B0007114000800000000711400080000000026
:1000C000002243088B4274D303098B425FD3030A97
:1000D0008B4244D3030B8B4228D3030C8B420DD3AA
:1000E000FF22090212BA030C8B4202D31212090238
:1000F00065D0030B8B4219D300E0090AC30B8B4276
:1001000001D3CB03C01A5241830B8B4201D38B0323
:10011000C01A5241430B8B4201D34B03C01A5241C8
:10012000030B8B4201D30B03C01A5241C30A8B420B
:1001300001D3CB02C01A5241830A8B4201D38B02F6
:10014000C01A5241430A8B4201D34B02C01A52419A
:10015000030A8B4201D30B02C01A5241CDD2C3090C
:100160008B4201D3CB01C01A524183098B4201D388
:100170008B01C01A524143098B4201D34B01C01A73
:10018000524103098B4201D30B01C01A5241C308EB
:100190008B4201D3CB00C01A524183088B4201D35A
:1001A0008B00C01A524143088B4201D34B00C01A46
:1001B0005241411A00D20146524110467047FFE7B2
:1001C00001B5002000F006F802BDC0460029F7D0B6
:1001D00076E770477047C04610B5064C2378002B71
:1001E00007D1054B002B02D0044800E000BF0123DB
:1001F000237010BD0C00002000000000CC1400088B
:10020000044B10B5002B03D00349044800E000BFA5
:1002100010BDC0460000000010000020CC140008F3
:1002200000B585B00C22002101A801F022F91E487A
:100230001E4B0360002343608360C36001220261A0
:1002400004214161037643768376C276C222FF326F
:10025000C26103629E3AFF3A8354836200F09AFAC5
:10026000002817D10523019380235B01029380238B
:100270005B0503930C4801A900F008FC00280CD191
:1002800006230193084801A900F000FC002807D1CB
:1002900005B000BD00F06EF8E4E700F06BF8EFE7A2
:1002A00000F068F8F4E7C046280000200024014070
:1002B00010B588B004001422002103A801F0D9F879
:1002C0002268114B9A4201D008B010BD0F4B9A69B9
:1002D000802189000A439A619A690A400192019A31
:1002E0005A69802189020A435A615B690B40029373
:1002F000029B602303935D3B0493902003A9C005F8
:1003000000F0B2FCE0E7C0460024014000100240CB
:1003100010B588B01422002103A801F0AAF8134BED
:100320005A69802189020A435A615A690A40019236
:10033000019A5A698021C9020A435A615B690B40DC
:100340000293029B0A4C00228121200000F050FD04
:1003500081230393803B049300230593069303A911
:10036000200000F081FC08B010BDC0460010024023
:100370000004004872B6FEE710B590B030220021AC
:1003800004A801F076F8102410220021684601F03C
:1003900070F812230493113B0793099308940A946D
:1003A00001330C93A0239B030E9304A800F026FDB9
:1003B00000280ED107230093053B019300230293ED
:1003C00003930121684600F091FF002803D110B08B
:1003D00010BDFFF7CFFFFFF7CDFF000010B500F015
:1003E000DBF8FFF7C9FFFFF793FFFFF719FF15E0F1
:1003F000002280213D4800F0FBFC65E00022402106
:100400003A4800F0F5FC3A4B1A88E123DB009A42A7
:1004100066D901222021354800F0EAFC354B08223C
:100420009A62354800F078FA0A2000F0D7F80121E6
:100430003148494200F0C2FA0028F8D12E4C200081
:1004400000F09AFA200000F01DFB2C4B1880294B7D
:1004500010229A62200000F05FFA0A2000F0BEF835
:1004600001212548494200F0A9FA0028F8D1224C80
:10047000200000F081FA200000F004FB204B1880DF
:100480001C4B20229A62200000F046FA0A2000F05D
:10049000A5F801211848494200F090FA0028F8D147
:1004A000154C200000F068FA200000F0EBFA104B29
:1004B0001880124B1A88E123DB009A4298D9012256
:1004C00080210A4800F094FC0D4B1A88E123DB00E0
:1004D0009A4293D901224021044800F089FC92E716
:1004E00000222021014800F083FC97E70004004827
:1004F0006800002000240140280000206C0000203B
:100500006A00002082B00A4B996901221143996167
:1005100099690A400092009ADA69802149050A43E4
:10052000DA61DB690B400193019B02B07047C04662
:1005300000100240FEE7FEE77047704710B500F07C
:100540003BF810BD7047000010B504000F4B197840
:10055000FA208000FFF7B4FD01000D4B1868FFF78B
:10056000AFFD00F07DFB00280DD1032C01D9012047
:100570000AE0013000222100404200F06DFB054BF3
:100580001C60002000E0012010BDC04604000020D7
:10059000000000200800002010B5064A1368102152
:1005A0000B4313600320FFF7CFFFFFF7ABFF0020E3
:1005B00010BDC04600200240034A1168034B1B785F
:1005C0005B1813607047C0467000002004000020D4
:1005D000014B18687047C0467000002070B50400D9
:1005E000FFF7F6FF0500631C02D0044B1B78E418EC
:1005F000FFF7EEFF401BA042FAD370BD04000020BD
:1006000070B50400026893685B0725D593685B07A3
:1006100006D593689B0703D4936810210B4393601E
:10062000FFF7D6FF050023689B685B0712D5FFF72D
:10063000CFFF401B0228F6D923689B685B07F2D5E1
:10064000A36B10221343A363E36B0F3A1343E363DB
:10065000012002E0002000E0002070BD70B5040021
:100660000268916803230B40012B01D0002070BD6C
:100670001368DB0702D4D3681B0431D591680523C6
:100680000B40012B09D0A36B10221343A363E36B30
:100690000F3A1343E3630120E9E7936802210B4318
:1006A0009360236803221A60FFF792FF0500236816
:1006B0009B68DB0712D5FFF78BFF401B0228F6D99A
:1006C00023689B68DB07F2D5A36B10221343A36357
:1006D000E36B0F3A1343E3630120C8E70020C6E74A
:1006E0000020C4E730B583B0040000230193036801
:1006F000996803220A40012A14D09968224A1142BB
:1007000018D19A6801210A439A60204B1868204941
:10071000FFF7D6FC0190019B002B15D0019B013BFC
:100720000193F8E71A68D2072BD4DA681204E4D5EB
:10073000002024E0A36B10221343A363E36B0F3A62
:100740001343E36301201AE0FFF742FF050023682B
:100750001B68DB0712D4FFF73BFF401B0228F6D9CA
:1007600023681B68DB07F2D4A36B10221343A36337
:10077000E36B0F3A1343E363012000E0002003B072
:1007800030BD0020FBE7C0461700008000000020BD
:1007900040420F0070B5041E00D1B4E0836B002B03
:1007A00000D180E0A36BDB0600D5A6E023689A6841
:1007B000042108001040114200D09EE0A26B534972
:1007C0000A400631FF310A43A263996803220A40B6
:1007D000012A6ED0DA6818218A43A1680A43DA60D8
:1007E000226813699B009B0861680B4313612268B0
:1007F000D36847490B40D360237E9B03627ED203BC
:100800001343A17E4A031343A26A012A58D08022CF
:1008100052011343E26813432269022A52D0034370
:100820002422A25C52001343E27E012A4CD0E269EA
:10083000C221FF318A4202D0216A0A431343216850
:10084000CA681A43CA60E26A802149058A420DD00B
:10085000012A0BD0022A09D0032A07D0042A05D086
:10086000052A03D0062A01D0072A0AD12068416947
:1008700007229143416120684169E56A2A400A43A1
:1008800042612268D26823490A409A422BD0A36B66
:1008900012229343023A1343A363E36B0F3A1343C9
:1008A000E36301202EE0C36334228354FFF700FD8D
:1008B00078E71A68D2079AD4DA68120497D489E7DD
:1008C0000200A6E70420AAE7002903D180225202F1
:1008D0001343ACE7A26B20210A43A263E26B1F39EA
:1008E0000A43E263A3E70023E363A36B032293437A
:1008F000023A1343A363002004E0A36B10221343C6
:10090000A363012070BD0120FCE7C046FDFEFFFF90
:100910001902FEFFE7FF3F8310B5040003689B68E0
:100920005B0723D43423C35C012B21D03423012261
:10093000C254437E012B14D10020A26B0D4B1A40F0
:1009400080235B001343A3630023E3633422A35497
:100950002368183A1A602268936804210B43936055
:1009600010BDFFF7BFFE0028FAD1E6E70220F7E747
:100970000220F5E7FEF0FFFF10B504003423C35C4E
:10098000012B17D034230122C254FFF739FE00286F
:1009900003D034230022E25410BD2000FFF75EFE96
:1009A0000028F6D1A36B044A13400432FF321343EC
:1009B000A363EEE70220EFE7FEFEFFFFF8B50400B9
:1009C0000E004769082F04D00368DB68DB0718D4E2
:1009D0000C27FFF7FDFD050023681A6817421FD199
:1009E000731CF9D0002E15D123681B681F42F3D168
:1009F000A36B04221343A36334230022E254032095
:100A000032E0836B20221343836334230022C254D9
:100A1000012029E0FFF7DCFD401BB042DCD9E3E711
:100A2000A16B802292000A43A263D968C0221201FE
:100A3000114213D1A27E002A10D11A6812070DD5D7
:100A40009A68520711D45A680C218A435A60A36BE2
:100A50000B4A13400432FF321343A363207E002865
:100A60000CD123680C221A60F8BDA36B202213431B
:100A7000A363E36B1F3A1343E363EFE70020F3E75D
:100A8000FEFEFFFF0368186C7047000030B583B0AE
:100A90000400002301933433C35C012B00D17FE0B9
:100AA00034230122C254026893685B076AD4486801
:100AB0003C4B98424BD0936A0D680120A8400343F9
:100AC0009362E36A80225205934213D0013B062BC6
:100AD00010D988682268556907232B40984209D0AD
:100AE0005069072398435061206842698D682B4004
:100AF000134343610B681A00103A022A4CD82A4A61
:100B00001268102B0ED0112B09D080235B041343E5
:100B1000254A13600B68102B07D0002037E0802394
:100B2000DB03F4E780231B04F1E7204B186820491E
:100B3000FFF7C6FA83001B185B00019302E0019BDC
:100B4000013B0193019B002BF9D100201FE0936A28
:100B50000D680120A840834393620B681A00103A85
:100B6000022A1BD8104A1268102B09D0112B05D06D
:100B7000104B13400C4A1360002008E00E4BF8E7BE
:100B80000E4BF6E7836B202213438363012034234B
:100B90000022E25403B030BD0020F8E70020F6E761
:100BA0000220F7E7011000000827014000000020A4
:100BB00040420F00FFFFFFFEFFFFBFFFFFFF7FFF71
:100BC00070B5002811DB8308134DC0339B005C59BE
:100BD00003221040C000FC3216008640B443890155
:100BE0000A40824022435A5170BD0F230340083B04
:100BF0009B0806339B00094A944663445C680322C1
:100C00001040C000FC3215008540AC4389010A4009
:100C1000824022435A60E7E700E100E000ED00E097
:100C2000013880235B0498420FD2094A506009487A
:100C3000036A1B021B0AC02109060B43036200233F
:100C4000936007331360002070470120FCE7C04623
:100C500010E000E000ED00E010B5FFF7B1FF10BDBF
:100C600010B5FFF7DDFF10BDF0B583B0002356E0EF
:100C700086685F000324BC40A643CC68BC40344374
:100C80008460446894434E683609012232409A4099
:100C90002243426053E0DE080836B600375805327A
:100CA0001A4092000F249440A7430C6994402200FC
:100CB0003A43325056E0032600E00026A6403400B6
:100CC0003C4302329200444E9451444A9768EA43AE
:100CD0003E00AE434C68E40201D53E002E433F4C3B
:100CE000A660E7683E0016404C68A40201D53E00AD
:100CF0002E433A4CE66067683E0016404C68A403F9
:100D000001D53E002E43354C6660266832404C6863
:100D1000E40301D52A003243304C226001330C68D1
:100D20002200DA4056D001229A4025001540144294
:100D3000F4D04E6803243440013C012C98D94C680F
:100D400003222240032A08D0C4685E000322B24076
:100D500094438A68B2402243C2604C680322224016
:100D6000022A98D004685E0003221700B740BC43F3
:100D70004F683A40B240224302604C68C02292025F
:100D80001442CBD0164CA66901221643A661A46971
:100D900022400192019A9A08941CA4000E4EA75971
:100DA00003241C40A4000F26A640B7439026F60556
:100DB000B04282D00B4EB04208D00B4EB04207D0AA
:100DC0000A4EB04200D176E7052677E7012675E79F
:100DD000022673E703B0F0BD0000014000040140AB
:100DE000001002400004004800080048000C0048C1
:100DF000002A01D0816170478162FCE770B582B042
:100E0000041E00D12EE20368DB0726D5AE4B5A68DC
:100E10000C231340042B18D0AB4B5A680C231340FF
:100E2000082B0ED06368012B3CD0002B51D1A64B70
:100E30001A68A6490A401A601A68A5490A401A6049
:100E400036E0A14B5B68DB03ECD59F4B1B689B0333
:100E500003D56368002B00D107E223689B0772D596
:100E6000994B5B680C221A425DD0974B5A680C2351
:100E70001340082B53D0E368002B00D185E0924A41
:100E8000136801210B431360FFF7A2FB05008E4B93
:100E90001B689B0770D4FFF79BFB401B0228F6D909
:100EA0000320E0E1884A116880235B020B43136052
:100EB0006368002B25D0FFF78BFB0500824B1B6876
:100EC0009B03CAD4FFF784FB401B6428F6D9032098
:100ED000C9E1052B09D07C4B1A687C490A401A608D
:100EE0001A687B490A401A60E2E7774B196880224A
:100EF000D2020A431A601968802252020A431A6019
:100F0000D6E7FFF765FB05006F4B1B689B03A4D575
:100F1000FFF75EFB401B6428F6D90320A3E16A4B70
:100F20005B68DB03A7D4684B1B689B0703D5E368AA
:100F3000012B00D09BE164490B68F822934322699E
:100F4000D20013430B6023681B0744D5E369002BD1
:100F50002ED05D4A536A01210B435362FFF738FBE1
:100F60000500594B5B6A9B0735D4FFF731FB401BEB
:100F70000228F6D9032076E153490B68F8229343FF
:100F80002269D20013430B60DDE74F4A1368012149
:100F90008B431360FFF71CFB05004B4B1B689B0743
:100FA000D1D5FFF715FB401B0228F6D903205AE1E3
:100FB000454A536A01218B435362FFF709FB050041
:100FC000414B5B6A9B0706D5FFF702FB401B0228DB
:100FD000F6D9032047E123685B0700D480E03A4B51
:100FE000DB69DB001DD4384BDA69802149050A43EF
:100FF000DA61DB690B400193019B0125354B1B68CE
:10100000DB0510D5A368012B21D0002B36D12E4B48
:101010001A6A01218A431A621A6A03318A431A62E0
:101020001AE00025EAE72B4A116880235B000B4396
:101030001360FFF7CDFA0600264B1B68DB05E1D4F1
:10104000FFF7C6FA801B6428F6D903200BE11E4A7D
:10105000136A01210B431362A368002B24D0FFF70E
:10106000B7FA0600184B1B6A9B0737D4FFF7B0FA94
:10107000801B194B9842F5D90320F4E0052B09D0C9
:10108000114B1A6A01218A431A621A6A03318A4390
:101090001A62E1E70C4B1A6A04210A431A621A6ABF
:1010A00003390A431A62D7E7FFF792FA0600064BA4
:1010B0001B6A9B0712D5FFF78BFA801B064B9842E1
:1010C000F5D90320CFE0C04600100240FFFFFEFF2D
:1010D000FFFFFBFF0070004088130000012D33D09C
:1010E0002368DB0610D56369012B33D0053351D15A
:1010F000654A536B04218B435363536BF4318B4329
:10110000A169C9000B435363236A002B00D1B0E0EF
:101110005D4A51680C220A40082A00D18AE0022B5D
:101120004FD0594A136859490B401360FFF750FAE2
:101130000400554B1B689B017AD5FFF749FA001B49
:101140000228F6D903208EE04F4AD36950490B405C
:10115000D361C5E74C4B5A6B04210A435A635A6B5F
:1011600003390A435A63FFF733FA0500464B5B6BBA
:101170009B0706D4FFF72CFA401B0228F6D9032060
:1011800071E041494B6BF8229343A269D2001343AB
:101190004B63B9E73C4B5A6B04210A435A635A6BC1
:1011A00003398A435A63FFF713FA0500364B5B6B2A
:1011B0009B07A9D5FFF70CFA401B0228F6D903209C
:1011C00051E0314A136831490B401360FFF700FAD0
:1011D00005002D4B1B689B0106D5FFF7F9F9401B55
:1011E0000228F6D903203EE0274BDA6A0F218A4312
:1011F000E16A0A43DA625A6826490A40A16A606ACB
:1012000001430A435A601968802252040A431A6053
:10121000FFF7DEF904001C4B1B689B0106D4FFF7A7
:10122000D7F9001B0228F6D903201CE000201AE0A1
:10123000002018E0012B1ED0134B5A68D86A802377
:101240005B021340616A8B4217D10F230340E16AAE
:101250008B4214D1F0239B031A40A36A9A4210D107
:10126000002000E0012002B070BD0120FBE701205A
:10127000F9E70020F7E70120F5E70120F3E7012077
:10128000F1E70120EFE7C04600100240FFFFFFFE3C
:10129000FFFFFFEFFFFFC2FF10B5104B5A680C2392
:1012A0001340082B01D00E4810BD910C0733194094
:1012B0000C48445C0949C96A0B400B49C95CD2031C
:1012C00004D50748FEF7FCFE6043EDE76201121B00
:1012D00093019B1ADB001B191802E5E7001002407E
:1012E00000127A0004150008F414000870B5040018
:1012F0000D00002800D17EE0434B1A680123134003
:101300008B420AD240490B68012293432B430B6066
:101310000B681A40AA4200D06FE023689A070ED5E6
:101320005B0705D5394A5168E023DB000B43536066
:10133000364A5368F0218B43A1680B4353602368FE
:10134000DB072DD56368012B1ED0022B22D02F4A3C
:101350001268920753D52D494A68032082431343EC
:101360004B60FFF735F90600284B5B680C221A40EA
:1013700063689B009A4213D0FFF72AF9801B244B25
:101380009842F1D9032035E0204A12689203E2D452
:1013900001202FE01D4A12689201DCD4012029E0CF
:1013A000194B1A6801231340AB4209D916490B683F
:1013B000012293432B430B600B681A40AA4220D1B1
:1013C00023685B0706D5114A536812490B40E16850
:1013D0000B435360FFF760FF0C4B5A6812090F2351
:1013E00013400D4AD35CD8400C4B18600320FFF724
:1013F000ABF8002070BD0120FCE70120FAE70120D6
:10140000F8E70120F6E7C046002002400010024045
:1014100088130000FFF8FFFFE4140008000000201C
:101420000D488546FFF78EF80C480D490D4A0023FC
:1014300002E0D458C4500433C4188C42F9D30A4A89
:101440000A4C002301E013600432A242FBD300F0F7
:1014500019F8FEF7C3FFFEE700200020000000207F
:101460000C0000201C1500080C0000207400002057
:10147000FEE703008218934200D1704719700133D0
:10148000F9E7000070B500260C4C0D4D641BA4104C
:10149000A64209D1002600F019F80A4C0A4D641B37
:1014A000A410A64205D170BDB300EB589847013691
:1014B000EEE7B300EB5898470136F2E71415000841
:1014C000141500081815000814150008F8B5C046D2
:1014D000F8BC08BC9E467047F8B5C046F8BC08BCCE
:0414E0009E4670476D
:1014E40000000000000000000102030406070809D0
:1014F4000102030405060708090A0B0C0D0E0F1060
:1015040002030405060708090A0B0C0D0E0F101040
:0415140001020008C8
:04151800D9010008ED
:0C151C0000127A00010000000400000032
:0400000508001421BA
:00000001FF
